:100000000C9484030C94B5030C94B5030C94B503C1
:100010000C94B5030C94B5030C94B5030C94B50380
:100020000C94B5030C94B5030C94B5030C94B50370
:100030000C94552A0C94B5030C94B5030C94B50399
:100040000C94B5030C94B5030C94B5030C94B50350
:100050000C94B5030C94B5030C94B5030C94191FC0
:100060000C94B5030C948D1F0C94631F0C94B50372
:100070000C94B5030C94B5030C94B5030C94B50320
:100080000C94B5030C94B5030C94B5030C94B50310
:100090000C94B5030C94B5030C94B5030C94C31FD6
:1000A0000C94B5030C94B5030C94B5030C94B503F0
:1000B0000C94B5030C94B5030C94B5030C94B503E0
:1000C0000C94B5030C94B5030C94B5030C94B503D0
:1000D0000C94B5030C94B5030C94B5030C94B503C0
:1000E0000C94B5030C94BB060C943F090C94AC1112
:1000F0000C94D6060C9464030C94DA060C94A70FA7
:100100000C94EC060C9439030C9476030C94B80B05
:100110000C9465130C9447160C94C6060C940D02AF
:100120000C94B7060C94E8060C9453190C94AE0585
:100130000C94B10B0C94DE060C94F5310C949E0BD0
:100140000C94CC060C94A5080C948F0B0C9482157F
:100150000C9469080C94BF060C94A0060C94AD0591
:100160000C94C3060C94DF010C94E50B0C94B908B5
:100170000C94F2060C94E4060C9407090C94582A8B
:100180000C94F6060C9496080C947C030C94DD09F0
:100190000C94280C0C94A5060C948C090C948E0BD2
:1001A0000C94D00600407A10F35A00A0724E180941
:1001B0000010A5D4E80000E87648170000E40B54CE
:1001C000020000CA9A3B000000E1F505000080969D
:1001D0009800000040420F000000A08601000000CF
:1001E000102700000000E803000000006400000089
:1001F00000000A00000000000100000000002C7652
:10020000D888DC674F0823DFC1DFAE59E1B1B7966C
:10021000E5E3E453C63AE651997696E8E6C28426C9
:10022000EB898C9B62ED407C6FFCEFBC9C9F40F2A5
:10023000BAA56FA5F490055A2AF75C936B6CF96721
:100240006DC11BFCE0E40D47FEF520E6B500D0EDE6
:10025000902E0300943577050080841E080000204E
:100260004E0A000000C80C333333330F986E1283EC
:100270001141EF8D2114893BE65516CFFEE6DB18C0
:10028000D1844B381BF77C1D901DA4BBE424203285
:1002900084725E228100C9F124ECA1E53D270000B3
:1002A0002100240027002A002D0030003300010126
:1002B0000000040107010A010000220025002800B7
:1002C0002B002E003100340002010000050108015E
:1002D0000B0100000A0B02090C0D0E0807030401B4
:1002E000000000000000000000000000000000000E
:1002F00000000000000000000000000000001211DB
:1003000010000000000000000000000000000000DD
:10031000000000000000000001021020200808106A
:100320002040102040800201020108040201010265
:10033000040810204080804020100804020180043E
:100340000201804020100804020108040201010299
:1003500004081020408001020408102040800000A2
:1003600020002300260029002C002F00320000016D
:100370000000030106010901050505050705080838
:100380000808020202020A0A08080404040401011F
:100390000101010101010303030303030303040734
:1003A00007070C0C0C0C0C0C0C0C020202020606CB
:1003B0000606060606060B0B0B0B0B0B0B0B8091B0
:1003C000D405811109C080913206823010F00E945C
:1003D0008E230E94AC09F3CF0FB6F8940F92E091F0
:1003E0001306F0911406C681D781CE0102960E94B1
:1003F0000A2180915B06815080935B068091D40531
:1004000081508093D4050F900FBE8F89988D0E94E4
:100410002226CE010E942226D2CFCF93DF9300D096
:100420001F921F92CDB7DEB785E0B82ECE010196A0
:100430007C01E091F105F091F2051081D12CC12CE5
:10044000112329F00580F681E02DC080D1800E9423
:1004500088230E947E234C018091EB059091EC054E
:100460008816990608F08BC00E94E9219092EC054D
:100470008092EB050E945624D701EB2D1D92EA9540
:10048000E9F70091ED051091EE050FB6F8940F9283
:10049000D8015A96DC905A97DD2009F431C15C9658
:1004A0004C915C974423F9F050E016968D919C9105
:1004B0001797840F951F17969C938E9316971496F3
:1004C0002D913C9115978217930738F08D919C914F
:1004D000119717969C938E931697F80166817781F2
:1004E000C7010E94A235DA94D8015A96DC925A9735
:1004F00018968C91882339F0C80108960E9497229B
:1005000081110E948E230F900FBEA980A7FCB9CF46
:100510000C811D81D8011A968D919C91892B21F017
:10052000C80102960E940A210E947E236C018091DC
:10053000EB059091EC05C816D90610F40E94E9214C
:10054000D092EC05C092EB05EFEFEA0DE93008F030
:1005500098CF0E2E000CFF0BD80152969C9152970B
:100560008827EA54FD4F8F4F0C947F3139033903AC
:100570007C0364037603390339037C03640390929C
:10058000EC058092EB05112351F08C149D0470F062
:100590000E945624B401C6010E94BF216DCFE09194
:1005A000EF05F091F00561E08081811160E000913C
:1005B000ED051091EE050FB6F8940F92D8015D96F7
:1005C0008C915D978F3F11F45D961C92F801868D9A
:1005D0008F3F09F4168E0F900FBED8015A968C915A
:1005E0005A9781113CC05296ED91FC91A091590609
:1005F000B0915A061F96FC93EE931E97A091590650
:10060000B0915A068481958151969C938E93509710
:100610008091590690915A06A481B5810C96139643
:100620009C938E9312978091590690915A060C963E
:1006300095838483E0915906F0915A06C80141964A
:10064000958B848BF80181898F5F818BC601881916
:100650009909662311F08FEF9FEF0E940722C801CE
:100660000E943C230E945624811106CF0E948E23B3
:1006700003CF9160F801928B8A809B806485758599
:10068000680D791D9401A601C8010E94712188237B
:1006900009F4F7CED80152968C91529782FF10C080
:1006A0001C966D917C91680D791DA601C8010E9470
:1006B0009B21D8015096ED91FC91C8011995E1CE8E
:1006C0008E7FF801828BF5CF916052969C93529762
:1006D0006A817B811D967C936E931C976C0D7D1DAA
:1006E0009601A601C8010E947121CBCE91FD04C0E4
:1006F000C8010E942226C5CE9E7FF801928BC1CEF2
:100700000F900FBE96CE582A11241FBECFEFD1E214
:10071000DEBFCDBF00E00CBF15E0A0E0B2E0E6E731
:10072000FBE600E00BBF02C007900D92AE37B107A9
:10073000D9F727E0AEE7B5E001C01D92AC3BB207A8
:10074000E1F713E0C4E8D3E000E006C02197010917
:10075000802FFE010E947F31C338D10780E0080757
:10076000A9F70E94A22B0C94B9350C94000090912B
:100770008107923079F018F4913031F00895933078
:1007800079F0943099F0089590E0909389008093E7
:100790008800089590E090939D0080939C000895B8
:1007A00090E09093A9008093A800089590E0909322
:1007B00099008093980008958F929F92AF92BF9274
:1007C000CF92DF92EF92FF920F931F93CF93DF931D
:1007D0008FB7F8944091D2065091D3066091D40619
:1007E0007091D5068FBF30919C07B091AD0734FB57
:1007F000AA27A0F934FF7CC0C090A107D090A2071F
:10080000E090A307F090A40737FB882780F9B11187
:100810000FC0C091B507D091B60798818091B707F6
:10082000982381E009F480E090919D0791708927D9
:100830008093AE074A015B018C189D08AE08BF0883
:1008400075016401C091AE0790919B0791FB8827C9
:1008500080F9CC2309F42CC181111BC081E5C81695
:10086000D104E104F104A8F04093A1075093A2073A
:100870006093A3077093A407997E92619068909308
:100880009B0780919D07806280939D07C12CD12C8E
:10089000760120919D0790919B0724FF13C08DE264
:1008A000C81681E0D806E104F10460F092FD05C0AD
:1008B00023FDB5C0226020939D0780919D078F7E08
:1008C00080939D0791FF14C08DEBC81682E0D80677
:1008D000E104F10468F092FD0BC0CC2309F4A1C03F
:1008E000916090939B0780919D078F7D80939D07DA
:1008F000BB2309F4A3C036FBEE27E0F9F0E0EE0FCE
:10090000FF1F35FB882780F98E2B20919F07281722
:1009100009F474C01092A00790919D0796FFBEC085
:10092000833009F0A7C09F7B90939D07213009F485
:100930009DC091E0223009F49AC033FD03C083309A
:1009400009F4A3C02091A007222309F448C0909184
:100950009B07986090939B07233040F490919D07EC
:1009600097FF04C093E0921B9093A0079091AE076D
:10097000911124C00091A5071091A6072091A70707
:100980003091A8074A015B01801A910AA20AB30AB2
:1009900095018401C0909E07D12CF12CE12C0C15FF
:1009A0001D052E053F0550F42091A007213009F0C8
:1009B00078C020919C07226020939C074093A50754
:1009C0005093A6076093A7077093A807AA2339F04E
:1009D000992329F09091A0079E5F9093A0078093A0
:1009E0009F0780919B07846080939B074093A1079A
:1009F0005093A2076093A3077093A407DF91CF9150
:100A00001F910F91FF90EF90DF90CF90BF90AF902C
:100A10009F908F90089580919D07886035CF2460C6
:100A20004ACF9D7F9E7F90939B074093A107509351
:100A3000A2076093A3077093A4075ACFE091AF0772
:100A4000F091B00790818091B107982321E009F4DB
:100A500020E0E091B207F091B30790818091B40754
:100A6000982382E009F480E0822B4FCF92E09093AC
:100A7000A00763CF33FD50C0811164CF9F7B90935B
:100A80009D07213041F0223031F090919D07906414
:100A900090939D0757CF2093A007F7CF8823A9F302
:100AA0004CCF223009F08ACF20919C07216084CF5F
:100AB000882309F4EECE81E5C816D104E104F104DF
:100AC00008F4E7CE92FD05C090FD03C090629093BC
:100AD0009B078DEBC81682E0D806E104F10428F0EC
:100AE00080919B07806480939B0780919B07409334
:100AF000A1075093A2076093A3077093A4078D7F6B
:100B00008E7F80939B0780919D0785FF84CF84FD16
:100B100082CF8061877FB8CE882309F4B6CF5FCFBC
:100B200080919C0782FD0E94DC038091A0078230A7
:100B300021F41092A00781E0089580E0089580914B
:100B40009C0782FD0E94DC038091A007813019F48C
:100B50001092A007089580E00895089508958230C6
:100B6000910538F0880F991F880F991F05970197F5
:100B7000F1F70895AF92BF92CF92DF92EF92FF927A
:100B80000F931F93CF93DF93EC0188819981892B79
:100B900089F06EBD0DB407FEFDCFBEB48B2DDF9185
:100BA000CF911F910F91FF90EF90DF90CF90BF906A
:100BB000AF9008958885998511E0892B09F010E898
:100BC000AA24A394862F812309F0A12C062F2C811F
:100BD0003D814E815F8160E271EA87E090E00E9492
:100BE0003E31F22EB02EE12CC22ED12CFF2019F076
:100BF000C6010E94AF058A85877F09F042C08D85B6
:100C00008F3F89F0902F912381E009F480E08A15CD
:100C100051F0EF85F8898F89992369F19081892BAB
:100C20008083AA24A394E989FA898081998D892BEC
:100C30008083FF2019F0C6010E94AF058E858F3F8B
:100C400039F0EB89FC898081988D892309F0E12AAC
:100C5000E989FA899081898D8095892380838E85A1
:100C60008F3F09F0BE2C88859985892BB9F5110F26
:100C70001111BCCF93CF9081809589238083A12CC3
:100C8000D2CFE989FA898081998D892B8083FF20D1
:100C900019F0C6010E94AF058D858F3F49F0EF85A1
:100CA000F8898F89902F9123A9F09081892B8083D7
:100CB000E989FA899081898D8095892380838E8541
:100CC0008F3F69F2EB89FC898081988D892339F205
:100CD000E12AC5CF908180958923E9CF1695C8CFA9
:100CE000282F30E0F901EE52FD4F9491F901E85EB2
:100CF000FC4F449128583C4FF9012491222309F4D8
:100D000035C0992311F191509231F8F4E92FF0E0B8
:100D10008827E257F94F8F4F0C947F31BF06C306E7
:100D2000A006B706BB06A506C606CC06D006D606A4
:100D3000DA06DE06E406E806A506EC06F206F60686
:100D4000809180008F7780938000E22FF0E0EE0F9B
:100D5000FF1FE854FD4FA591B4918FB7F894EC9123
:100D6000611148C040954E234C938FBF08958091E8
:100D700080008F7DE8CF80918000877FE4CF84B5AD
:100D80008F7784BDE2CF84B58F7DFBCF8091B0009B
:100D90008F778093B000D9CF8091B0008F7DF9CF4D
:100DA000809190008F7780939000CFCF80919000BA
:100DB0008F7DF9CF80919000877FF5CF8091A00043
:100DC0008F778093A000C1CF8091A0008F7DF9CF55
:100DD0008091A000877FF5CF809120018F7780934D
:100DE0002001B3CF809120018F7DF9CF8091200128
:100DF000877FF5CF4E2BB8CFCF93DF9360E08CE0A9
:100E00000E94700660E088E00E947006C7E0D0E0B3
:100E100060E084E00E94700680917F0790E00C2ED5
:100E200002C0959587950A94E2F761E080FF60E043
:100E300088E00E94700661E084E00E9470062197BD
:100E400038F761E08CE0DF91CF910C9470069091BF
:100E50008107923049F018F4913049F108959330A8
:100E600001F1943009F1089524E091E0823011F10C
:100E70008430A9F1813009F045C041E050E0BA0169
:100E800001C0660F9A95EAF780917F07862B01C013
:100E9000440F2A95EAF74095482340937F070C9426
:100EA000FC0627E095E0E2CF26E090E0DFCF23E0EC
:100EB00092E0DCCF41E050E0BA0102C0660F771F3C
:100EC0009A95E2F7CB01809590917F07892301C025
:100ED000440F2A95EAF7842B80937F07E0CF41E007
:100EE00050E0BA0102C0660F771F9A95E2F7CB0176
:100EF00001C0440F2A95EAF7842B809590917F07D3
:100F00008923EACF0895FC0183858F3F19F061E0C2
:100F10000C9470060895FC0180819181892B39F031
:100F2000A281B3819C9111968C919CBD8DBD8385CE
:100F30008F3F19F060E00C9470060895CF92DF9215
:100F4000EF92FF920F931F93CF93DF938C01EB01EE
:100F50006A0179010E948B076881C8010E94BA0565
:100F6000E601EC0CFD1C6FEFC8010E94BA058993E5
:100F7000CE15DF05C1F7C8010E94830781E0DF912C
:100F8000CF911F910F91FF90EF90DF90CF90089538
:100F9000CF93DF9390E0FC01E85EFC4F24918858EA
:100FA0009C4FFC0184918823C9F090E0880F991F21
:100FB000FC01E256FD4FA591B491FC01E854FD4FB0
:100FC000C591D49161110DC09FB7F8948C91209573
:100FD00082238C938881282328839FBFDF91CF9120
:100FE0000895623051F49FB7F8943C91822F809518
:100FF00083238C93E8812E2BEFCF8FB7F894EC915D
:101000002E2B2C938FBFEACF3FB7F8948091FD052C
:101010009091FE05A091FF05B091000626B5A89B12
:1010200005C02F3F19F00196A11DB11D3FBFBA2F7A
:10103000A92F982F8827BC01CD01620F711D811D3A
:10104000911D42E0660F771F881F991F4A95D1F7BF
:1010500008958F929F92AF92BF92CF92DF92EF92BC
:10106000FF924B015C010E9404086B017C010E940D
:1010700004086C197D098E099F09683E734081053B
:101080009105A8F321E0821A9108A108B10888EE21
:10109000C80E83E0D81EE11CF11C81149104A10448
:1010A000B10429F7FF90EF90DF90CF90BF90AF9001
:1010B0009F908F900895DB0114964D915C91159748
:1010C0006D917C91DC01ED91FC910280F381E02D2A
:1010D0001994AF92BF92CF92DF92EF92FF920F934B
:1010E0001F93CF93DF936C017B018B01040F151FBE
:1010F000EB015E01AE18BF08C017D10759F0699126
:10110000D601ED91FC910190F081E02DC601199579
:10111000892B79F7C501DF91CF911F910F91FF9036
:10112000EF90DF90CF90BF90AF900895FC01538D6A
:10113000448D252F30E0842F90E0821B930B5417B1
:1011400010F0CF96089501970895FC01918D828D3E
:10115000981761F0A28DAE0FBF2FB11D5D968C91D7
:10116000928D9F5F9F73928F90E008958FEF9FEF16
:101170000895FC01918D828D981731F0828DE80FD2
:10118000F11D858D90E008958FEF9FEF08952FB7A3
:10119000F8948091D2069091D306A091D406B09194
:1011A000D5062FBF8093DE069093DF06A093E0065E
:1011B000B093E10686ED96E00E94B90897FF26C03D
:1011C0002FB7F8948091D2069091D306A091D406BF
:1011D000B091D5062FBF4091DE065091DF06609199
:1011E000E0067091E106841B950BA60BB70B4091AE
:1011F000DA065091DB066091DC067091DD068417FB
:101200009507A607B707B0F28FEF9FEF0895FC018F
:10121000918D228D892F90E0805C9F4F821B9109D8
:101220008F739927089586ED96E00E94070921E0C3
:10123000892B09F420E0822F0895FC01A48DA80FCA
:10124000B92FB11DA35ABF4F2C91848D90E0019608
:101250008F739927848FA689B7892C93A089B18928
:101260008C91837080648C93938D848D981306C0C9
:101270000288F389E02D80818F7D80830895EF922D
:10128000FF920F931F93CF93DF93EC0181E0888F40
:101290009B8D8C8D98131AC0E889F989808185FF10
:1012A00015C09FB7F894EE89FF896083E889F989B2
:1012B00080818370806480839FBF81E090E0DF91B4
:1012C000CF911F910F91FF90EF900895F62E0B8D07
:1012D00010E00F5F1F4F0F731127E02E8C8D8E11C2
:1012E0000CC00FB607FCFACFE889F989808185FF29
:1012F000F5CFCE010E941D09F1CFEB8DEC0FFD2F34
:10130000F11DE35AFF4FF0829FB7F8940B8FEA89E3
:10131000FB8980818062CFCFCF93DF93EC01888DF2
:101320008823B9F0AA89BB89E889F9898C9185FD60
:1013300003C0808186FD0DC00FB607FCF7CF8C91EE
:1013400085FFF2CF808185FFEDCFCE010E941D0980
:10135000E9CFDF91CF91089580E090E0892B29F0CB
:101360000E94130981110E94000080E090E0892B07
:1013700049F080E090E0892B29F00E940000811163
:101380000E94000080E090E0892B49F080E090E02E
:10139000892B29F00E94000081110E94000080E04A
:1013A00090E0892B49F080E090E0892B29F00E94A1
:1013B000000081110C940000089508952091B1055A
:1013C000260F3327331F21323105ECF42091A80674
:1013D000FC0190E080E0243069F082E00895A09163
:1013E000B1052191AC014F565A4FA40FB52FB11D35
:1013F0002C930196861798F38091B105680F60933E
:10140000B10580E0089581E008951092A80681E07A
:101410008093A7061092820661E084E10E94700624
:1014200061E085E10E947006E9EBF0E080818E7F4B
:10143000808380818D7F808388E48093B80085E4F9
:101440008093BC000895109261061092600610927D
:10145000AF061092D1060E94050A8DEA95E090939E
:101460005F0680935E068EEA95E090935D0680931A
:101470005C060895CF93DF9391E0909390058823C5
:10148000B9F0C091B800D091BA008091BC008A7BBD
:101490008093BC0060E084E10E94700660E085E11A
:1014A0000E9470060E94050AD093BA00C093B8004B
:1014B000DF91CF9108958F929F92AF92BF92CF927A
:1014C000DF92EF92FF920F931F93CF93DF93D09110
:1014D000D106D13208F0D7C0182FC091D0060E9493
:1014E00004086B017C018091A80681116BC082E029
:1014F0008093A8061093A7068FEF8093A6061092FC
:10150000A506D093A406A0EBB6E0E4E8F6E080E000
:10151000D81391C01092830680918306CC0FC82BFC
:10152000C093830680918206813009F088C01092B2
:1015300082060E9404086B017C01809183068093DF
:10154000BB008091AA069091AB06A091AC06B09129
:10155000AD06892B8A2B8B2BA1F00E9404080091E9
:10156000AA061091AB062091AC063091AD066C191D
:101570007D098E099F09061717072807390708F400
:1015800042C08091BC0083FDD8CF85EC8093BC0025
:101590000E9404086B017C018091A806823009F446
:1015A00050C08091A6068F3F09F46FC08091A606B7
:1015B000803209F46CC08091A606803309F469C0BA
:1015C00084E026C08091AA069091AB06A091AC065B
:1015D000B091AD06892B8A2B8B2B09F484CF0E9406
:1015E00004088090AA069090AB06A090AC06B0903C
:1015F000AD066C197D098E099F0986169706A80607
:10160000B90608F070CF8091A9060E943A0A85E0D9
:101610001092AF061092D1061092AE06DF91CF91D4
:101620001F910F91FF90EF90DF90CF90BF90AF9000
:101630009F908F9008959D9191938F5F69CF85EED4
:10164000A5CF8091AA069091AB06A091AC06B0916F
:10165000AD06892B8A2B8B2B09F49ECF0E940408A0
:101660000091AA061091AB062091AC063091AD0610
:101670006C197D098E099F09061717072807390776
:1016800008F08ACFC0CF81E0C3CF80E0C1CF82E035
:10169000BFCF83E0BDCF1F93CF93DF93EA01122F1B
:1016A000DC0111968D919C91DC01ED91FC91028001
:1016B000F381E02D1995C817D90729F4812F0E94CD
:1016C0005B0A91E0811190E0892FDF91CF911F910A
:1016D0000895CF93DF93EC018B818823A1F088815B
:1016E00091E09093AE068093D0061092AF061092D0
:1016F000D10681E00E945B0A91E0811190E0892F80
:10170000DF91CF9108950E94230A81E08B83CE015F
:101710000E94690B982F8111E2CFF1CF0895E091DB
:10172000610680916006E81730F4F0E0EE59F94F59
:10173000808190E008958FEF9FEF0895909161066A
:10174000809160062FEF3FEF981748F4E92FF0E003
:10175000EE59F94F208130E09F5F90936106C901F7
:1017600008958091600690916106891B990B0895F8
:10177000CF92DF92EF92FF920F931F93CF93DF935D
:101780007C01CB018A012091AE06222389F0EB0176
:101790006B01C40ED51ECC15DD0569F06991D7012A
:1017A000ED91FC910190F081E02DC7011995F3CFE7
:1017B000642F0E94DE09C801DF91CF911F910F9124
:1017C000FF90EF90DF90CF900895CF93DF931F921B
:1017D000CDB7DEB769832091AE062223F9F02091C0
:1017E000D106203258F021E030E0FC01338322831F
:1017F00090E080E00F90DF91CF9108958091AF0647
:10180000E82FF0E0E055F94F998190838F5F809346
:10181000AF068093D10681E090E0ECCF61E0CE018D
:1018200001960E94DE09F7CFFC01248131E030935C
:10183000AE062093D0061092AF061092D106848592
:10184000682B83E797E00E94E50B81E00C945B0A2C
:1018500090E080E008950F931F93CF93DF931F9242
:101860001F92CDB7DEB74A83DC01ED91FC91309732
:10187000F9F0698384819581029798F0808191E0E5
:101880009093AE068093D0061092AF061092D106C8
:1018900021E042E050E0BE016F5F7F4FCF010E9428
:1018A0004B0B0F900F90DF91CF911F910F910895E7
:1018B0006F776983FC0102811381C8010E948B0745
:1018C0006981C8010E94BA056A81C8010E94BA05EF
:1018D000C8010E948307E5CF2F923F924F925F92FB
:1018E0006F927F928F929F92AF92BF92CF92DF9230
:1018F000EF92FF920F931F93CF93DF93DC01149627
:10190000ED91FC911597EF2B09F425C169012A018E
:10191000EC01888191E09093AE068093D0061092FE
:10192000AF061092D10620E041E050E0CD010E94C8
:101930004B0B782E882309F40EC1F12CE12C3324B3
:1019400033948C819D8186010E191F0980179107A0
:1019500008F48C0128800E9404084B015C018091EE
:10196000A806811173C0602EB0E2B01710F480E2B7
:10197000682E3092A80621E0C601801B910BE81664
:10198000F90608F420E02093A706EFEFE093A606FF
:101990001092A5068FEF860D8093A40630928306E1
:1019A00080918306220C282A209283068091820649
:1019B000813009F090C0109282060E9404084B0109
:1019C0005C01809183068093BB008091AA06909170
:1019D000AB06A091AC06B091AD06892B8A2B8B2B60
:1019E000A1F00E9404082091AA063091AB06409114
:1019F000AC065091AD06681979098A099B0926172A
:101A000037074807590708F442C08091BC0083FD9E
:101A1000D8CFF5ECF093BC000E9404084B015C01A8
:101A20008091A806813009F45AC08091A5068615D8
:101A300010F46090A506A4E8B6E0E2E6F6E080E0E7
:101A4000861551F19D9191938F5FFACF8091AA06EF
:101A50009091AB06A091AC06B091AD06892B8A2B74
:101A60008B2B09F47CCF0E9404082091AA063091A8
:101A7000AB064091AC065091AD06681979098A0908
:101A80009B09261737074807590708F068CF809148
:101A9000A9060E943A0A612C1092610660926006C3
:101AA0006016110609F057C042018E0C9F1C5401AC
:101AB000C501881999098017910798F589819A813C
:101AC000DC01ED91FC910284F385E02D1995F5017F
:101AD00081935F01EDCF85EE8093BC009DCF809117
:101AE000AA069091AB06A091AC06B091AD06892BE9
:101AF0008A2B8B2B09F494CF0E9404082091AA060C
:101B00003091AB064091AC065091AD066819790949
:101B10008A099B09261737074807590708F080CF1D
:101B2000B6CFE00EF11EEC14FD0408F40ACF872DA9
:101B3000DF91CF911F910F91FF90EF90DF90CF90A9
:101B4000BF90AF909F908F907F906F905F904F90DD
:101B50003F902F900895712CEACFCF93DF9300D060
:101B6000CDB7DEB7FC0180819181698323E030E04D
:101B7000AE014F5F5F4FBA010097A1F00E946C0C5D
:101B800029816A8170E090E080E0982F872F762F7E
:101B90006627822B2B81622B0F900F900F90DF9185
:101BA000CF910895828193810E949E07E9CF4F9241
:101BB0005F926F927F928F929F92AF92BF92CF92DD
:101BC000DF92EF92FF92CF93DF93EC016AEF0E94D6
:101BD000AD0D6115710520E88207910509F48FC0EC
:101BE0006B017C0184E0F594E794D794C7948A95BF
:101BF000D1F74F88588CC701B60128E030E040E0AB
:101C000050E00E946031712C612CD301C201880F19
:101C1000991FAA1FBB1F281B390B4A0B5B0BA98DF1
:101C2000BA8D0E9487314B015C01C701B60120E1EA
:101C300030E040E050E00E946031CA01B90164190F
:101C40007509860997099B01AC010E942E319B0101
:101C5000AC017CE055954795379527957A95D1F756
:101C6000AB8DBC8D0E9487312B013C01C501B401B5
:101C700020E038E040E050E00E94603169017A01E4
:101C8000C301B20120E030E440E050E00E94603146
:101C90002C0D3D1D4E1D5F1D8B899C89AD89BE8914
:101CA000280F391F4A1F5B1F2F87388B498B5A8B90
:101CB000A5E0B0E00E94143160587F4F8F4F9F4FD6
:101CC00020E031E040E050E00E946031CA01B901FB
:101CD0000E94F72F20E030E048EC52E40E947F336E
:101CE000DF91CF91FF90EF90DF90CF90BF90AF90BA
:101CF0009F908F907F906F905F904F90089560E0DD
:101D000070E080EC9FE7ECCFCF93DF931F921F92A0
:101D1000CDB7DEB7FC0180819181698322E030E09C
:101D2000AE014F5F5F4FBA01009761F00E946C0CEB
:101D300089819A819827892798270F900F90DF91A2
:101D4000CF910895828193810E949E07F1CF0E94D6
:101D5000840E9827892798270895CF93DF931F92A1
:101D6000CDB7DEB7FC0180819181698321E030E04D
:101D7000AE014F5F5F4FBA01009739F00E946C0CC3
:101D800089810F90DF91CF910895828193810E9484
:101D90009E07F6CF0F931F93CF938C01C62F0E94FF
:101DA000140C6C2F6460C8010E94140C6C2F6B7FA4
:101DB000C8010E94140C83EC90E00197F1F7CF91D9
:101DC0001F910F9108950F931F93CF93DF938C0171
:101DD000D62FC42F607F642B0E94CA0E80E1D89F4B
:101DE000B00111246C2BC801DF91CF911F910F918D
:101DF0000C94CA0ECF93DF9300D000D01F921F9295
:101E0000CDB7DEB798E0E0E1F2E0DE011196019097
:101E10000D929A95E1F790919607961708F46FEF57
:101E2000262F30E0220F331F41E050E04C0F5D1FA2
:101E3000240F351FF9016081680F606840E08EE86B
:101E400097E028960FB6F894DEBF0FBECDBFDF91A6
:101E5000CF910C94E30E40E061E08EE897E00E94A1
:101E6000E30E8BE39FE10197F1F7809197078823B9
:101E700021F060E080E00C94FA0E0895CF93DF9398
:101E80000E94230A1092930780919907823018F0DC
:101E900098E0909393078093960762E370E080E068
:101EA00090E00E94290860919A078EE897E00E94CE
:101EB000140C68EE73E080E090E00E94290860E373
:101EC0008EE897E00E94CA0ECBE4D6E4CE010197DB
:101ED000F1F760E38EE897E00E94CA0E2197F1F7D0
:101EE00060E38EE897E00E94CA0E83E592E00197D6
:101EF000F1F760E28EE897E00E94CA0E60919307C6
:101F0000606240E08EE897E00E94E30E84E08093F8
:101F1000940740E06CE08EE897E00E94E30E0E9498
:101F20002B0F82E08093950740E066E08EE897E013
:101F30000E94E30E40E062E08EE897E00E94E30E2C
:101F40008BE39FE10197F1F7DF91CF91089541E095
:101F50000E94E30E81E090E00895FB0101900020D3
:101F6000E9F73197AF01461B570BDC01ED91FC916E
:101F70000280F381E02D1994CF93DF93BC0186EDAD
:101F800096E00E945B08EC016AEA72E086ED96E05A
:101F90000E94AD0F8C0F9D1FDF91CF9108958F92FE
:101FA0009F92AF92BF920F931F93CF93DF93CDB7C2
:101FB000DEB7A1970FB6F894DEBF0FBECDBF19A252
:101FC000423008F44AE08E010F5D1F4F842E912CA1
:101FD000B12CA12CA50194010E943E31E62FB9013C
:101FE000CA01EA3004F5E05DD801EE938D01232BA0
:101FF000242B252B79F790E080E0109729F0BD0184
:102000008EE897E00E94AD0FA1960FB6F894DEBF60
:102010000FBECDBFDF91CF911F910F91BF90AF90B9
:102020009F908F900895E95CDFCFCF93DF93BC0141
:1020300086ED96E00E94AD0FEC016AEA72E086ED53
:1020400096E00E94AD0F8C0F9D1FDF91CF910895F8
:10205000BC018EE897E00C94AD0F0F931F93CF93C4
:10206000DF93EC0188819981009759F02A813B81A7
:102070002617370730F081E0DF91CF911F910F9144
:1020800008958B016F5F7F4F0E94C134009759F014
:10209000998388831B830A832C813D81232B59F7E5
:1020A000FC011082E8CF80E0E7CFEF92FF920F9320
:1020B0001F93CF93DF936115710541F480E0DF91A9
:1020C000CF911F910F91FF90EF9008954115510509
:1020D000B1F07B01EC010C811D81040F151FB801CB
:1020E0000E942D10882351F3288139818C819D8194
:1020F000B701820F931F0E94B2351D830C8381E0CC
:10210000DECFCF93DF93EC0188819981009711F0A6
:102110000E94E12C198218821D821C821B821A8265
:10212000DF91CF910895EF92FF920F931F93CF937A
:10213000DF93EC017B01198218821B821A821D82B7
:102140001C82FB0101900020E9F731978F01061BEB
:10215000170BB8010E942D10811109C0CE01DF912B
:10216000CF911F910F91FF90EF900C9481101D83E0
:102170000C83B70188819981DF91CF911F910F91D5
:10218000FF90EF900C94B235EF92FF920F931F9354
:10219000CF93DF938C017B01EB0109900020E9F7DD
:1021A0002197C61BD70BBE010E942D10811109C0BB
:1021B000C801DF91CF911F910F91FF90EF900C9488
:1021C0008110F801D583C483B70180819181DF91AB
:1021D000CF911F910F91FF90EF900C94B235EF9239
:1021E000FF920F931F93CF93DF93CDB7DEB7A197E5
:1021F0000FB6F894DEBF0FBECDBF7C01CB01BA0194
:10220000F7011182108213821282158214828E01CC
:102210000F5F1F4F22E044E00E94272C009789F0B7
:10222000BC01C7010E94C410A1960FB6F894DEBF8E
:102230000FBECDBFDF91CF911F910F91FF90EF9017
:102240000895C7010E948110EFCF0F931F93CF9382
:10225000DF9300D000D000D0CDB7DEB78C01862F41
:10226000F8011182108213821282158214824AE0D0
:10227000BE016F5F7F4F90E00E94752DBE016F5FC2
:102280007F4FC8010E94C41029960FB6F894DEBF94
:102290000FBECDBFDF91CF911F910F9108950F9386
:1022A0001F93CF93DF93CDB7DEB762970FB6F89445
:1022B000DEBF0FBECDBF8C01CB01F80111821082B1
:1022C00013821282158214824AE0BE016F5F7F4F33
:1022D0000E946A2DBE016F5F7F4FC8010E94C4102B
:1022E00062960FB6F894DEBF0FBECDBFDF91CF91DF
:1022F0001F910F910895CF93DF93EC01FB010190A3
:102300000020E9F73197AF01461B570B0E9455108B
:10231000811103C0CE010E948110CE01DF91CF91C7
:102320000895CF93DF93EC01FB01448155816081D7
:1023300071810E945510811103C0CE010E9481104D
:10234000CE01DF91CF910895FC01808191810097AA
:1023500011F00C94E12C0895CF93DF93CDB7DEB745
:1023600062970FB6F894DEBF0FBECDBF88E492E04F
:102370000E94151086ED96E00E94070918161906AE
:102380000CF00EC186ED96E00E94A508182F0E9461
:10239000C708FC0197FDC0C08D32910559F0C09768
:1023A0000A9740F0EE32F10529F086ED96E00E94A2
:1023B000A508EDCF412C512C80E8682E8FE3782EB4
:1023C000812C912C540100E0F12CE130F10549F110
:1023D000ED32F105C9F1EE32F105C9F1CF01C09737
:1023E0000A97F8F4AAE0B0E0A50194010E94143124
:1023F0004F01FF0FAA08BB08860E971EA81EB91E24
:1024000080E3881A9108A108B108002351F02DEC4F
:102410003CEC4CEC5DE3C301B2010E9456302B0151
:102420003C0186ED96E00E94A5080E94C708FC01C9
:10243000C0970A9750F2EE32F10559F4002329F2C1
:102440000F2DF1100CC01BC0FF24F394EACF01E064
:10245000E8CFE130F10509F4B8CFFF2041F0B094A6
:10246000A09490948094811C911CA11CB11CC50166
:10247000B4010E94F72F6B017C01002351F0C501CC
:10248000B4010E94F72FA30192010E9456306B0104
:102490007C01143609F48AC00CF042C0143409F4EB
:1024A000A7C01D3409F4FBC0B701A601CE010D96EB
:1024B0000E94EF1018861F821A8619861C861B86BA
:1024C00019831A82BE016F5F7F4FCE0107960E946B
:1024D000C41066ED73E0CE0101960E949310BE0118
:1024E000695F7F4FCE0101960E94911165EA73E00A
:1024F0000E947B11BE01635F7F4F0E9491110E9479
:10250000BC0FCE0101960E94A411CE0107960E9435
:10251000A411CE010D9669C0C12CD12C7601B9CF82
:102520001D3609F497C0133709F0BECFB701A601D5
:10253000CE0107960E94EF106DEA72E0CE0101967F
:102540000E949310BE01695F7F4FCE0101960E94E9
:1025500091116AEC72E00E947B110E94BC0FCE01C7
:1025600001960E94A411CE0107960E94A411C701F2
:10257000B6010E943434162F6093830501E0611187
:1025800000E0602F80E30E947006602F81E30E94CC
:10259000700661E0111101C060E08DE00E947006DC
:1025A000A89586E090E00E943326E4CEB701A6010C
:1025B000CE0107960E94EF106AEE72E0CE010196FE
:1025C0000E949310BE01695F7F4FCE0101960E9469
:1025D000911163E173E00E947B110E94BC0FCE0158
:1025E00001960E94A411CE0107960E94A411D8CF93
:1025F00020E030E0A901C701B6010E94B7341816E7
:102600009CF420E030E040E85FE3C701B6010E949F
:10261000F02F87FF09C0C0920502D0920602E09217
:102620000702F0920802BCCFB701A601CE010796BF
:102630000E94EF1063E473E0CE0101960E949310B4
:10264000BE01695F7F4FCE0101960E9491116BE63A
:1026500073E0C1CF20E030E0A901C701B6010E94BC
:10266000B73418169CF420E030E048EC52E4C7017F
:10267000B6010E94F02F87FF09C0C0920102D092DC
:102680000202E0920302F09204028ACFB701A6018F
:10269000CE0107960E94EF1068E873E0CDCFC70126
:1026A000B6010E942D349B0121503109273C310590
:1026B00018F46093000274CFB701A601CE0107960B
:1026C0000E94EF106FEA73E0B7CFCF93DF93CDB7DF
:1026D000DEB72C970FB6F894DEBF0FBECDBF01E07A
:1026E00010E082E0A82EB12C94E0892E912C772462
:1026F000739428EC622E212C312C3FE7432E33E4D7
:10270000532E0E94DC0380919C0782FD0E94DC0313
:1027100080919D0781FD25C080919C0782FD0E94CC
:10272000DC0380919D0782FF2CC08B7F8D7F80937F
:102730009D07909282058092810581E494E00E9439
:10274000151080918305882309F45CC010928305DD
:102750008FE494E00E94151060E08DE00E94700606
:1027600010C08D7F8B7F80939D0780918105909114
:10277000820582309105A1F1B8F4009709F1019723
:1027800041F180918105909182058230910509F493
:1027900084C008F03FC0019709F46AC0A89581E0A1
:1027A00090E00E943326ADCF8330910511F106975A
:1027B00040F710928205109281058FE294E006C0E6
:1027C00010938205009381058BEE93E00E94151013
:1027D000D8CFB0928205A09281058CEF93E0F6CF1E
:1027E00083E090E0909382058093810581E194E0FD
:1027F000EDCF85E090E0909382058093810586E29D
:1028000094E0E4CF7092830584E594E00E94151073
:1028100061E0A3CF8330910509F417C1059709F052
:10282000BDCF0E949F05882309F447C12DEC3CECE5
:102830004CEC5DE360910502709106028091070205
:10284000909108020E9413336B017C0120E030E07C
:1028500040E85FE30E94B73418160CF417C1C09229
:102860000502D0920602E0920702F092080216C119
:102870000E949005882339F0109280058AE594E043
:102880000E9415108BCF0E949F05882309F486CFE4
:10289000709280058DE694E0F3CF0E949F05882317
:1028A00009F467C0C0900102D0900202E0900302D8
:1028B000F090040220E030E040E85FE3C701B60199
:1028C0000E94B73487FD28C020E030E040E85FE395
:1028D000C701B6010E9413336B017C0120E030E098
:1028E00048EC52E40E94B73418164CF0C092010232
:1028F000D0920202E0920302F092040231C080E022
:1029000090E0A8ECB2E48093010290930202A093BD
:102910000302B093040224C02DEC3CEC4CEC5DE3CC
:10292000C701B6010E94B73487FD1AC020E030E02D
:1029300040E85FE3C701B6010E94F02F87FF10C097
:102940002DEC3CEC4CEC5DE3C701B6010E94133367
:102950006093010270930202809303029093040239
:1029600040910102509102026091030270910402B1
:1029700029C00E949005882309F410CFC09001025D
:10298000D0900202E0900302F090040220E030E0D8
:1029900040E85FE3C701B6010E94B73420E030E0B1
:1029A00040E85FE387FD2AC0C701B6010E941233E9
:1029B000AB01BC01409301025093020260930302F9
:1029C00070930402CE0107960E94EF1061E874E054
:1029D000CE0101960E949310BE01695F7F4FCE0128
:1029E00001960E9491110E94BC0FCE0101960E9497
:1029F000A411CE0107960E94A411D0CEC701B60142
:102A00000E94F02F87FFCACE2DEC3CEC4CEC5DE32E
:102A1000C701B6010E94B73487FDC0CE2DEC3CEC57
:102A20004CEC5DE3C701B6010E9412336B017C01DF
:102A30002DEC3CEC4CEC5DE30E94F02F87FF56CF71
:102A40008DEC9CECACECBDE35ECF0E949F0588232F
:102A500089F0809100028F5F893C18F48093000216
:102A600002C06092000260910002CE0107960E94AF
:102A70002511ACCF0E949005882309F48FCE809158
:102A80000002815059F770920002EDCF20920502AA
:102A900030920602409207025092080240910502CD
:102AA000509106026091070270910802CE010796CC
:102AB0000E94EF1069E874E08BCF0E949005882394
:102AC00009F46CCE2DEC3CEC4CEC5DE3609105021E
:102AD0007091060280910702909108020E941233C1
:102AE0006B017C0120E030E0A9010E94F02F87FFFC
:102AF000B6CE1092050210920602109207021092B2
:102B00000802CCCF61E0809184070E94C80761E091
:102B1000809185070E94C80761E0809183070E9429
:102B2000C80760E0809183070E94700661E08FE033
:102B30000E94C807C0900102D0900202E0900302F8
:102B4000F090040261E080918005813009F060E03E
:102B5000809185070E94700620E030E048E456E44A
:102B6000C701B6010E9456309B01AC0160EC71EECA
:102B700084E69CE40E947F330E94F633209386070C
:102B800030938707409388075093890760938A079B
:102B900070938B0780938C0790938D0780918305AA
:102BA000882309F469C061E08FE00E94700661E04B
:102BB000809184070E9470062091860730918707D4
:102BC000409188075091890760918A0770918B071F
:102BD00088EEA82E93E0B92EC12CD12CE12CF12C3B
:102BE00000E010E080918C0790918D070E941A32CE
:102BF000EEE3AE2EB12C0E948F31F8EEAF2EA3E0A3
:102C0000BA2E0E941A32C9010E94332660E08091D8
:102C100084070E94700620918607309187074091B3
:102C200088075091890760918A0770918B0780917E
:102C30008C0790918D070E941A32BEE3AB2EB12C07
:102C40000E948F31E8EEAE2EF3E0BF2E0E941A32C2
:102C5000C9010E943326809100020E94B70380912F
:102C60008005813009F082E00E942707A89581E065
:102C700090E00E9433265ECF60E08FE00E947006F5
:102C800060E0809183070E94700684E0EDCFCF93CF
:102C9000DF93CDB7DEB72C970FB6F894DEBF0FBE2B
:102CA000CDBF0E943E0F88E080939A0760E08EE8D7
:102CB00097E00E94140C11E4A8950E942B0F8091BC
:102CC0008105909182058230910509F485C058F400
:102CD000009709F45AC0019709F468C08FE190E0A9
:102CE0000E943326E9CF8430910509F4AEC008F480
:102CF00097C0059799F760E080E00E94FA0E86EE93
:102D000094E00E94281061E080E00E94FA0EC090DA
:102D10000502D0900602E0900702F0900802A70199
:102D20009601C701B6010E94BC3460EF74E08111C6
:102D300027C046015701E894B7F82FEF3FEF4FE760
:102D40005FE7C501B4010E94BC3481110CC02FEFB4
:102D50003FEF4FE75FE7C501B4010E94F02F64EF3A
:102D600074E018166CF02FEF3FEF4FE75FE4C701F8
:102D7000B6010E94B73418160CF059C168EF74E020
:102D80008EE897E00E94AD0FA9CF60E080E00E943E
:102D9000FA0E84E994E00E94281061E08BE00E9422
:102DA000FA0E84EA94E00E94281098CF60E080E058
:102DB0000E94FA0E8AEA94E00E94281061E080E006
:102DC0000E94FA0E80918005882319F088E794E02C
:102DD000EACF85E694E0E7CF60E080E00E94FA0E5B
:102DE00085EB94E00E94281061E080E00E94FA0EDA
:102DF000409101025091020260910302709104021D
:102E0000CE0101960E94EF10BE016F5F7F4F8EE8EA
:102E100097E00E945B08CE0101960E94A4115ECF4C
:102E200060E080E00E94FA0E84EC94E00E9428109A
:102E300061E080E00E94FA0E6091000270E090E094
:102E400080E04AE00E94CF0F49CF60E080E00E941E
:102E5000FA0E80917B00886080937B0010937C0049
:102E600080917A00806480937A0080917A0086FD58
:102E7000FCCF609178007091790090E080E00E9432
:102E8000F52F20E030E040EA5BE30E94563027E572
:102E900037EB44E955E40E94563020E030E040EA48
:102EA00050E40E9456300E942D34072E000C880BEF
:102EB000990B0E94F72F20E030E04AE754E40E948B
:102EC0007F330E942D34CE0107960E944F1163ED8F
:102ED00074E0CE0101960E949310BE01695F7F4F9E
:102EE000CE0101960E9491116AED74E00E947B115F
:102EF000BC018EE897E00E945B08CE0101960E941B
:102F0000A411CE0107960E94A41161E080E00E9406
:102F1000FA0E60918C0570918D0580918E059091CF
:102F20008F050E942D34CE0107960E944F116DED42
:102F300074E0CE0101960E949310BE01695F7F4F3D
:102F4000CE0101960E949111BC018EE897E00E948B
:102F50005B08CE0101960E94A411CE0107960E9443
:102F6000A41161E085E00E94FA0E609188057091DD
:102F7000890580918A0590918B050E942D34CE01A0
:102F800007960E944F1160EE74E0CE0101960E94F8
:102F90009310BE01695F7F4FCE0101960E9491118F
:102FA000BC018EE897E00E945B08CE0101960E946A
:102FB000A411CE0107960E94A41161E08AE00E944C
:102FC000FA0E609184057091850580918605909137
:102FD00087050E942D34CE0107960E944F1163EEA3
:102FE00074E0CE0101960E949310BE01695F7F4F8D
:102FF000CE0101960E949111BC018EE897E00E94DB
:103000005B08CE0101960E94A411CE0107960E9492
:10301000A41160E08BE00E94FA0E8091830581117B
:1030200003C08FE494E0BFCE84E594E0BCCE2FEFE4
:103030003FEF4FE75FECC701B6010E94F02F87FD1D
:103040009DCE20E030E0A901C701B6010E94F02F1B
:1030500087FF0AC041E06DE28EE897E00E94E30E30
:10306000F7FAF094F7F8F0942AE037ED43EA5BE3DF
:10307000C701B6010E9413334B015C010E94343436
:103080006B017C010E94F52F9B01AC01C501B401CD
:103090000E9412334B015C014AE0C701B6010E9455
:1030A000CF0F41E06EE28EE897E00E94E30E20E051
:1030B00030E040E251E4C501B4010E9456304B01BA
:1030C0005C010E9434346B01F12CE12C4AE0C70111
:1030D000B6010E94CF0FC701B6010E94F52F9B01D8
:1030E000AC01C501B4010E94123320E030E040E29F
:1030F00051E40E9456300E943434A1CE85ED809375
:10310000BC008091AA069091AB06A091AC06B0914C
:10311000AD060796A11DB11D23E0B695A79597951D
:1031200087952A95D1F72091BC0024FD03C0109209
:10313000A80608954091AA065091AB066091AC068E
:103140007091AD06452B462B472B69F30097A105DF
:10315000B10541F02AE22A95F1F700C00197A109D3
:10316000B109E1CF8091A9060C943A0A0F931F93FD
:10317000E6EDF6E0A089B18982E08C93A485B5855F
:103180001C92A685B78580E18C93108EA489B589A1
:1031900086E08C93A289B3898C9180618C93A289FB
:1031A000B3898C9188608C93A289B3898C91806853
:1031B0008C930288F389E02D80818F7D808388E164
:1031C0009FE00FB6F894A895809360000FBE90938F
:1031D000600010E000E021E040E052E069E075E0CE
:1031E00085E693E10E94392821E040E052E066E163
:1031F00075E082E895E10E94392821E040E051E045
:1032000061E275E087E496E10E94392821E040E818
:1032100050E06AE275E08CEA91E10E94392821E0F1
:1032200040E051E06DE375E083E599E10E943928C3
:103230000E94672981E0809380008BE08093810069
:10324000E8E8F0E089EF90E091838083608171810C
:1032500090E080E00E94F52F209105023091060257
:1032600040910702509108020E9456300E942D346E
:1032700070938B0060938A0061E089E00E94C80728
:103280000E943E0F88E080939A0760E08EE897E006
:103290000E94140C809100020E94B70384E01F91E9
:1032A0000F910C942707CF93DF93CDB7DEB7C455AA
:1032B000D1090FB6F894DEBF0FBECDBF1C821B82B2
:1032C0001E821D8218861F821A8619861C8A1D8AF4
:1032D0001E8A1F8A86E090E00E94452C8C0186E7BA
:1032E000D8018C9383E797E012969C938E93119765
:1032F00013961C92139780E290E015969C938E9300
:1033000014971A8309830E94230A81E0F8018383BA
:10331000C8010E94690B882309F402C560EDCE0143
:1033200001960E94AD0E90E0B0E0A0E08C879D87F2
:10333000AE87BF8780369105A105B10509F0F0C4BD
:1033400046EB60EECE0101960E942B0C6AE070E025
:1033500080E090E00E94290863EFCE0101960E9470
:10336000AD0E80FDF3CF68E8CE0101960E94A70E56
:10337000998F888F6AE8CE0101960E94A70E9B8FD5
:103380008A8F6CE8CE0101960E94A70E9D8F8C8FCC
:103390006EE8CE0101960E94A70E9F8F8E8F60E986
:1033A000CE0101960E94A70E99A388A362E9CE01DF
:1033B00001960E94A70E9BA38AA364E9CE01019601
:1033C0000E94A70E9DA38CA366E9CE0101960E94E0
:1033D000A70E9FA38EA368E9CE0101960E94A70EB7
:1033E00099A788A76AE9CE0101960E94A70E9BA71C
:1033F0008AA76CE9CE0101960E94A70E9DA78CA713
:103400006EE9CE0101960E94A70E9FA78EA761EAE2
:10341000CE0101960E94AD0E88AB61EECE01019601
:103420000E94A70E9AAB89AB63EECE0101960E9473
:10343000AD0E8BAB64EECE0101960E94AD0E182F3F
:1034400065EECE0101960E94AD0EF0E11F029001E3
:1034500011248F70282B3DAB2CAB66EECE0101966C
:103460000E94AD0E182F65EECE0101960E94AD0EA2
:1034700040E114029001112490E074E09595879545
:103480007A95E1F7822B932B9FAB8EAB67EECE0143
:1034900001960E94AD0E88AF8DEE8AAF8BAD8F7115
:1034A000806A8BAF89AD807C8F7789AF40E064EF15
:1034B000CE0101960E942B0C4BAD4295469547706C
:1034C00062EFCE0101960E942B0C89AD482F477008
:1034D00090E2499FA0011124282F26952695269534
:1034E0002770A4E02A9F90011124422B87FB882794
:1034F00080F9482B65EFCE0101960E942B0C8AAD16
:10350000482F4770B0E24B9FA0011124282F269529
:10351000269526952770E4E02E9F90011124422BDA
:103520008295869586958370482B64EFCE0101962F
:103530000E942B0C64E670E080E090E00E94290875
:10354000CE0101960E94D70D60938C0570938D0576
:1035500080938E0590938F05CE0101960E94D70D22
:103560006DEFCE0101960E94840EB0E0A0E08115BF
:10357000E0E89E07A105B10509F44DC4C888D988C3
:10358000EA88FB88FCE2DF1AF1E0EF0AF1084C015F
:103590005D018EE0880C991CAA1CBB1C8A95D1F792
:1035A0008CA99DA9092E000CAA0BBB0B24E1880F46
:1035B000991FAA1FBB1F2A95D1F7881A990AAA0A30
:1035C000BB0AAEA9BFA9A70196010E948731861A3E
:1035D000970AA80AB90AC501B401705C8F4F9F4FC2
:1035E00020E030E840E050E00E94603129013A01DB
:1035F000ABA9B0E0A70196010E94143120E038E0A9
:1036000040E050E00E94603149015A0180E8980E84
:10361000A11CB11CA8AD0A2E000CBB0BA701960182
:103620000E94873120E034E040E050E00E946031A9
:10363000CA01B901A50194010E942E3120E034E0B5
:1036400040E050E00E946031405E5F4FA9A9BAA9F6
:103650000E948731705E8F4F9F4F20E030E440E042
:1036600050E00E946031C301B2010E942E316B0113
:103670007C0120E030E840E050E00E946031CA0167
:10368000B9010E942E319B01AC0167E05595479529
:10369000379527956A95D1F7A8A9B0E00E94143113
:1036A00020E130E040E050E00E946031C21AD30ACD
:1036B000E40AF50AF7FE03C0C12CD12C7601C7013C
:1036C000B601613071058105A9E19A0724F060E037
:1036D00070E080E099E10CE0959587957795679586
:1036E0000A95D1F70E94F52F20E030E040E85AE338
:1036F0000E945630609388057093890580938A05EF
:1037000090938B05CE0101960E94D70D67EFCE01F5
:1037100001960E94AD0D2B966CAF7DAF8EAF9FAF23
:103720002B97611571058048910509F479C3888943
:103730009989AA89BB896C017D01FF0CCC08DC2C1E
:1037400076019C01AD016C2D7C2D8C2D9C2D345F60
:103750004140510961097109810991092CAF3DAFBF
:103760004EAF5FAF21966FAF219722967FAF229722
:1037700023968FAF239724969FAF249759016A0110
:103780007B018C010E948F3125962FAF25972696BD
:103790003FAF269727964FAF27972C965FAF2C9772
:1037A0002D966FAF2D972E967FAF2E972F968FAFBA
:1037B0002F9760969FAF609739A128A1932F990FFB
:1037C000990B492F592F692F792F892F0E948F31FB
:1037D0000CE00E94BE3219012A013B014C013BA1C1
:1037E0002AA1932F990F990B2596AFAC2597269672
:1037F000BFAC26972796CFAC27972C96DFAC2C979B
:103800002D96EFAC2D972E96FFAC2E972F960FADE1
:103810002F9760961FAD6097492F592F692F792FE9
:10382000892F0E948F31F22E032F142FB52FF62FE0
:10383000E72FD82EE92EA0E00E94063384F4215011
:103840003F4F4F4F5F4F6F4F7F4F8F4F9F4FF22E26
:10385000032F142FB52FF62FE72FD82EE92E2F2D5B
:10386000302F412F5B2F6F2F7E2F8D2D9E2D08E047
:103870000E94D73251016201730184010E94F43227
:1038800070588F4F9F4F2E8C3F8C5101C12CD12CE3
:10389000E12CF12C00E010E00E948F31F22E032F7A
:1038A000142FB52FF62FE72FD82EE92EA0E00E9477
:1038B000063384F421503109410951096E4F7F4F7D
:1038C0008F4F9F4FF22E032F142FB52FF62FE72F78
:1038D000D82EE92E2F2D302F412F5B2F6F2F7E2FCB
:1038E0008D2D9E2D01E20E94D73261962FAF6197F8
:1038F00062963FAF629763964FAF639764965FAFF0
:10390000649765966FAF6597272E382E492EA0E0F5
:103910000E94063309F489C239A528A5932F990F6F
:10392000990B2596AFAC25972696BFAC2697279680
:10393000CFAC27972C96DFAC2C972D96EFAC2D971C
:103940002E96FFAC2E972F960FAD2F9760961FAD3A
:103950006097492F592F692F792F892F0E948F3116
:1039600025962FAF259726963FAF269727964FAFE0
:103970002797552E3B014C013FA12EA1932F990F64
:10398000990BACACBDACCEACDFAC2196EFAC2197C3
:103990002296FFAC229723960FAD239724961FAD56
:1039A0002497492F592F692F792F892F0E948F3102
:1039B00001E10E94BE322596AFAC25972696BFAC9A
:1039C00026972796CFAC2797D52C730184010E94A8
:1039D000F43259016A017B01582E192F2B968CADB8
:1039E0009DADAEADBFAD2B9724E0B595A79597954E
:1039F00087952A95D1F720E030E040E150E0281B80
:103A0000390B4A0B5B0BDA01C90139014A01990CE8
:103A10006608762C43019C01AD01662D762D862D1E
:103A2000962D0FE10E94BE3239014A01B62FA72F11
:103A3000F82FE92F3DA12CA1932F990F990B492F16
:103A4000592F692F792F892F03E20E94BE32052D4D
:103A50000E94F43259016A017B018C019301A40197
:103A60006B2F7A2F8F2F9E2F0E94FD32E5E3AE2E13
:103A7000FCE0BF2EC12CD12CE12CF12C00E010E099
:103A80000E948F316196AFAC61976296BFAC62972E
:103A90006396CFAC63976496DFAC64976596EFACA2
:103AA0006597F22C032D142D0E94E93119012A018A
:103AB0003B014C01F22E032D142FB52DF62FE72DCF
:103AC000D82EE92CA0E00E94063384F42150304E19
:103AD0004F4F5F4F6F4F7F4F8F4F9F4FF22E032FF0
:103AE000142FB52FF62FE72FD82EE92E2F2D302F9C
:103AF000412F5B2F6F2F7E2F8D2D9E2D0DE00E946D
:103B0000D7322CAF3DAF4EAF5FAF21966FAF21974D
:103B100022967FAF229723968FAF239724969FAF4D
:103B200024973FA52EA5932F990F990BACACBDAC54
:103B30006A017B01082F24961FAD2497492F592F26
:103B4000692F792F892F0E948F310E948F31F22E99
:103B5000032F142FB52FF62FE72FD82EE92EA0E034
:103B60000E94063384F42150310941095E4F6F4FA2
:103B70007F4F8F4F9F4FF22E032F142FB52FF62F0D
:103B8000E72FD82EE92E2F2D302F412F5B2F6F2FAF
:103B90007E2F8D2D9E2D09E10E94D73251016201A9
:103BA000730184010E94F4322CAF3DAF4EAF5FAF82
:103BB00021966FAF219722967FAF229723968FAFE2
:103BC000239724969FAF24973DA52CA5932F990F5B
:103BD000990B492F592F692F792F892F0E948F31E7
:103BE000F22E032F142FB52FF62FE72FD82EE92E04
:103BF000A0E00E94063384F421503109484F5F4F02
:103C00006F4F7F4F8F4F9F4FF22E032F142FB52FE3
:103C1000F62FE72FD82EE92E2F2D302F412F5B2F97
:103C20006F2F7E2F8D2D9E2D03E10E94D7325901DB
:103C30006A017B018C012CAD3DAD4EAD5FAD21968F
:103C40006FAD219722967FAD229723968FAD239754
:103C500024969FAD24970E94F432F22E032F142F46
:103C6000B52FF62FE72FD82EE92EA0E00E940633BD
:103C700084F421503F4F4F4F5F4F6F4F7F4F8F4F17
:103C80009F4FF22E032F142FB52FF62FE72FD82E8C
:103C9000E92E2F2D302F412F5B2F6F2F7E2F8D2D53
:103CA0009E2D08E00E94D732A22FF32F6A017B01DC
:103CB000E82F192F4AA45BA4052C000C660877088E
:103CC00053014201BB0C8808982C54019201A301B6
:103CD000682D782D882D982D04E00E94BE32AA2EE2
:103CE000BF2E0E2F0E94F4320E94633420E030E099
:103CF00040E85BE30E94563020E030E048EC52E4BC
:103D00000E947F33609384057093850580938605B8
:103D100090938705A8958DE790E00E94332610CCFC
:103D200089E495E00E9415100FB6F8940F92009167
:103D3000590610915A067801F2E0EF0EF11CC70106
:103D40000E940A21D80154968D919C91892B21F0D3
:103D5000C8010C960E940A21809157068F5F8093BC
:103D600057068091590690915A06209158062223B1
:103D700009F448C00817190709F044C0E0910F067C
:103D8000F0911006D8011596FC93EE931497848158
:103D9000958117969C938E931697A481B58113965F
:103DA000FC92EE921297F582E4828EE096E0F801A2
:103DB0009387828780910E068F5F80930E06809195
:103DC000D4058F5F8093D40581E00F900FBE8130C2
:103DD00049F0D80157968D919C910E942226C801E6
:103DE0000E94222680915806882309F4A9CB80914D
:103DF000590690915A060817190709F0A1CB0E949D
:103E00008E239ECB80915B06815080935B060E943F
:103E1000F22080E0DACF60E070E080EC9FE76ACCCF
:103E200060E070E080EC9FE767CF60E070E0CB017E
:103E300063CF1F920F920FB60F9211242F933F93CF
:103E40008F939F93AF93BF938091D2069091D306A7
:103E5000A091D406B091D5063091FC0523E0230F44
:103E60002D3758F50196A11DB11D2093FC058093B7
:103E7000D2069093D306A093D406B093D506809132
:103E8000FD059091FE05A091FF05B09100060196F9
:103E9000A11DB11D8093FD059093FE05A093FF0524
:103EA000B0930006BF91AF919F918F913F912F9159
:103EB0000F900FBE0F901F90189526E8230F0296C3
:103EC000A11DB11DD2CF1F920F920FB60F921124D8
:103ED0000BB60F922F933F934F935F936F937F9304
:103EE0008F939F93AF93BF93EF93FF9386ED96E0ED
:103EF0000E941D09FF91EF91BF91AF919F918F910A
:103F00007F916F915F914F913F912F910F900BBED9
:103F10000F900FBE0F901F9018951F920F920FB623
:103F20000F9211240BB60F922F938F939F93EF93C1
:103F3000FF93E091E606F091E7068081E091EC06C0
:103F4000F091ED0682FD1DC090818091EF068F5F9C
:103F50008F732091F006821741F0E091EF06F0E0B8
:103F6000EA52F94F958F8093EF06FF91EF919F9161
:103F70008F912F910F900BBE0F900FBE0F901F903F
:103F800018958081F2CF1F920F920FB60F921124D5
:103F90000BB60F922F933F934F935F936F937F9343
:103FA0008F939F93AF93BF93EF93FF938091B9004B
:103FB000887F803609F44DC008F040C0883209F48B
:103FC000A9C028F5803109F49DC0C8F4882309F4FC
:103FD000FBC0883009F496C0FF91EF91BF91AF917B
:103FE0009F918F917F916F915F914F913F912F9111
:103FF0000F900BBE0F900FBE0F901F901895883139
:1040000009F488C0803241F78093A60614C080343A
:1040100009F49DC040F48033B9F38833E9F6809306
:10402000A60685ECB0C0803509F485C0883509F452
:1040300096C0883489F60E947E18CECF883909F45C
:104040008CC038F5883729F050F4883611F0803765
:1040500019F683E08093A8061092D30557C08838DC
:1040600009F47BC0803919F0803809F0B5CF809110
:10407000D305803208F071C0E091D30581E08E0F46
:104080008093D3058091BB00F0E0ED54FA4F80831C
:104090003DC0803B39F0E0F4803A09F479C0883AB9
:1040A00009F09ACF84E08093A8061092B20510928E
:1040B000B105E0915E06F0915F0619958091B1051A
:1040C00081110FC081E08093B1051092910509C064
:1040D000803C09F4A6CF883C09F4A3CF883B09F0C3
:1040E0007BCFE091B20581E08E0F8093B205F0E0C6
:1040F000EF56FA4F80818093BB009091B20580917A
:10410000B10529C0809183068093BB0085EC809324
:10411000BC0062CF9091A5068091A406981758F52F
:10412000E091A50681E08E0F8093A506F0E0EC57A4
:10413000F94F8081E9CFE091A50681E08E0F809351
:10414000A5068091BB00F0E0EC57F94F8083909179
:10415000A5068091A4069817C8F285E8D8CFE0910B
:10416000A50681E08E0F8093A5068091BB00F0E04C
:10417000EC57F94F80838091A70681115CCF81E0D5
:104180008093820684EA8093BC001092A80624CF14
:1041900085EC8093BC001092A8068091D3058032F4
:1041A00030F4E091D305F0E0ED54FA4F10826091C5
:1041B000D30570E0E0915C06F0915D0683EB95E03D
:1041C00019951092D30508CF1092A60634CF0FB6DA
:1041D000F8940F92FC01928D0F900FBE81E0911127
:1041E00080E00895E0910306F0910406808181113A
:1041F00007C08FEF9FEF9093F4058093F305089528
:10420000E0910306F09104060580F681E02D80819F
:104210009181F1CFCF93DF93FC01A085B18582819D
:10422000938124813581EC013D832C83C481D58128
:104230009B838A8311968D919C9112978E179F076D
:1042400021F41296DC93CE931197118610868C91EF
:1042500081508C93DF91CF9108950F931F93CF934B
:10426000DF938C01FB0180819181D80113968F3FF0
:104270009807F1F4E801AF81B88512968D919C9171
:10428000139793838283EC01FD83EC83B583A4832E
:104290001396FC93EE93129711870087F8018081A3
:1042A0008F5F8083DF91CF911F910F910895D90186
:1042B00012962D913C911397E901488159818417F9
:1042C0009507A8F7DACFFC010396928381832FEF3D
:1042D0003FEF34832383968385839087878310827F
:1042E0000895FC017383628391878087461757077F
:1042F00090F0421B530B8485958548175907C8F4E5
:10430000BF016E5F7F4F8091EF059091F0050E9495
:104310002D2180E008954217530718F462177307A0
:1043200040F4BF016E5F7F4F8091F1059091F205DF
:10433000EECF81E00895EF92FF920F931F93CF93FA
:10434000DF93EC018B017A016C857D85600F711F15
:104350009801A701CE010E947121811107C0DF9150
:10436000CF911F910F91FF90EF9008958C859D85BF
:10437000080F191FE889F989CE011995E5CFEF9249
:10438000FF920F931F93CF93DF938C017B01E091FA
:10439000F105F091F2050580F681E02DC681D78107
:1043A000CE0102960E940A218A8982FF0FC0A701CE
:1043B000B801CE010E949B21E889F989CE01DF91E5
:1043C000CF911F910F91FF90EF9019948E7F8A8B60
:1043D000F3CFE091F105F091F205808181110DC0DC
:1043E0008091EF059091F0059093F2058093F1058F
:1043F000F093F005E093EF0508950580F681E02D38
:104400006FEF7FEF808191810E94BF21E2CFBF9249
:10441000CF92DF92EF92FF920F931F93CF93DF9390
:10442000EC01B62EC090F605D090F705009103067A
:1044300010910406E0900106F09002068091590662
:1044400090915A0602960E940A21CF3FDC0709F09C
:1044500042C0BB2009F43FC0E0910606F091070678
:10446000A0915906B0915A061596FC93EE931497B5
:10447000A0915906B0915A068481958117969C9314
:104480008E9316978091590690915A06A481B58112
:10449000029613969C938E93129780915906909151
:1044A0005A06029695838483E0915906F0915A0644
:1044B00085E096E093878287809105068F5F8093E1
:1044C0000506DF91CF911F910F91FF90EF90DF9044
:1044D000CF90BF900895CC0DDD1DE0915906F0916D
:1044E0005A06D383C2836091590670915A066E5F53
:1044F0007F4FCC15DD0560F4C701DF91CF911F918F
:104500000F91FF90EF90DF90CF90BF900C942D21F2
:10451000C8010E942D218091F3059091F405C817E0
:10452000D90778F6D093F405C093F305CACFCF939B
:10453000DF93DC011596ED91FC910680F781E02D6B
:10454000A489B5898685978520893189EC013D83C9
:104550002C83C089D1899B838A83CF010C961196C5
:104560002D913C9112972817390721F41296DC936C
:10457000CE931197158A148A2C9121502C93209157
:10458000FA05211157C0A285B385848195812681C2
:104590003781EC013D832C83C681D7819B838A833D
:1045A000CF01029611962D913C9112972817390749
:1045B00021F41296DC93CE931197138612862C91D8
:1045C00021502C93C689209156062C1710F4C093C5
:1045D000560629E02C9FE0011124CE5CD94F0980BA
:1045E000DA81C02DD583C4834C815D815783468396
:1045F000AC81BD8113969C938E9312979D838C837F
:10460000A689A29FD0011124AE5CB94FB387A287BF
:104610008C918F5F8C93A0915906B0915A06968920
:1046200056968C91891730F581E08093FB05DF91D8
:10463000CF910895A0911806B0911906B787A68763
:1046400014962D913C911597318B208B1496CD911A
:10465000DC9115979B838A8315969C938E93149770
:1046600087E196E0958B848B809117068F5F80930E
:104670001706D1CF80E0DBCFEF92FF920F931F930D
:10468000CF93DF93EC010FB6F8940F921E8D7C014F
:1046900081E1E80EF11C01E01116D4F08FEF8E8F4E
:1046A0000F900FBE0FB6F8940F921D8D7E0188E01B
:1046B000E80EF11C01E01116B4F08FEF8D8F0F9012
:1046C0000FBEDF91CF911F910F91FF90EF90089552
:1046D0008989882319F3C7010E94972281110093C9
:1046E000FB051150D9CF8885882339F3C7010E9473
:1046F000972281110093FB051150DDCF0FB6F8947E
:104700000F928091F6059091F7050F900FBE0895D6
:104710008091FA058F5F8093FA0508950F920FB686
:10472000F8940F920BB60F920CB60F921F921124B1
:104730002F923F924F925F926F927F928F929F92B1
:10474000AF92BF92CF92DF92EF92FF920F931F939F
:104750002F933F934F935F936F937F938F939F9389
:10476000AF93BF93CF93DF93EF93FF93A09159063D
:10477000B0915A060DB60D920EB60D928091FA05C3
:10478000882321F081E08093FB0561C01092FB0536
:10479000A0915906B0915A06E0915906F0915A0637
:1047A0002D913C918789908D82179307A8F0809175
:1047B000590690915A068091590690915A06279A67
:1047C0002F9A2FEF87EA91E6215080409040E1F741
:1047D00000C000001F9AF5CF2091560689E001C065
:1047E0002150422F50E0849FF001859FF00D11244D
:1047F000EE5CF94F9081992399F3A181B2811296D1
:104800006D917C9172836183289FC00111248B5C20
:10481000994F6817790721F4858196819283818366
:1048200089E0849FF001859FF00D1124EE5CF94F23
:104830000180F281E02D8681978190935A068093C2
:104840005906209356068091590690915A06A091D8
:104850005906B0915A06CD91CDBFDD91DEBFFF91D3
:10486000EF91DF91CF91BF91AF919F918F917F9108
:104870006F915F914F913F912F911F910F91FF90F9
:10488000EF90DF90CF90BF90AF909F908F907F90F0
:104890006F905F904F903F902F901F900F900CBEA5
:1048A0000F900BBE0F900FBE0F9008958F929F92A6
:1048B000BF92CF92DF92EF92FF920F931F93CF930D
:1048C000DF930FB6F8940F928091FA058150809390
:1048D000FA058091FA05882379F080E00F900FBEE9
:1048E000DF91CF911F910F91FF90EF90DF90CF90CC
:1048F000BF909F908F90089580915B06882369F305
:10490000E0901C06F0901D06F0E0E0E039E041E0A8
:104910008091170681115EC0EF2B11F00E94F220EA
:10492000E090F805F090F905E114F10409F47DC177
:1049300089E0D82ECC24C3940FEF1FEF8091FA05A5
:10494000811161C1C091F605D091F7054E018FEF3D
:10495000881A980A9092F7058092F60581149104BE
:10496000B9F48091030690910406209101063091DC
:104970000206309304062093030690930206809368
:1049800001068091F5058F5F8093F5050E94F22066
:104990008091F3059091F405B12C8816990608F0E2
:1049A00026C1E0915906F0915A06E689DE9EF00193
:1049B0001124EE5CF94F8081823010F0BB24B39457
:1049C0008091FB05811103C0BB2009F425C1C09271
:1049D000FB0522C1D7011696ED91FC91A489B589FA
:1049E0006685778580899189EB019D838C83808999
:1049F0009189EC017B836A83BF01645F7F4F1196CD
:104A00000D911C9112970617170721F412969C938B
:104A10008E931197158A148A8C9181508C93A2855C
:104A2000B3858481958166817781EC017D836C8378
:104A300066817781EB019B838A83CF010296119671
:104A40000D911C9112970817190721F412967C9367
:104A50006E931197138612862C9121502C93A68960
:104A6000209156062A1710F4A09356063A9FD001BB
:104A70001124AE5CB94F11960D90BC91A02DB58359
:104A8000A48314966D917C91159777836683149611
:104A90006D917C911597EB019B838A8315969C936E
:104AA0008E9314979689939FD0011124AE5CB94FD1
:104AB000B387A2878C918F5F8C93A0915906B09198
:104AC0005A0656968C91891708F022CF4093FB0521
:104AD0001FCFE0910306F09104060580F681E02DDA
:104AE0000680F781E02D828193818816990628F44B
:104AF0009093F4058093F30554CFC285D3858481C8
:104B0000958126813781DC0115963C932E9314976D
:104B100026813781D90113969C938E931297CF01EA
:104B2000029649815A814817590711F43A8329831B
:104B300013861286288121502883A489B58910976D
:104B4000F9F02685378540895189E9015D834C83D9
:104B500040895189EA013B832A8311966D917C91AA
:104B600012979F01245F3F4F6217730721F412963B
:104B70005C934E931197158A148A2C9121502C9393
:104B8000A689209156062A1710F4A0935606DA9E9D
:104B9000D0011124AE5CB94F11960D90BC91A02D9F
:104BA000B583A48314962D913C9115973783268362
:104BB00014962D913C911597E9019B838A83159654
:104BC0009C938E93149796899D9DD0011124AE5C81
:104BD000B94FB387A2878C918F5F8C93E091590670
:104BE000F0915A068689891710F4BB24B394E0919A
:104BF0000306F0910406808181116BCF1093F405B8
:104C00000093F305CECE8091F8059091F9050196B9
:104C10009093F9058093F805D1E0ED1AF10809F0B9
:104C20008DCE1092F9051092F8058091FB0588232E
:104C300009F453CE8091590690915A060E948E2312
:104C400081E04CCECF93DF93009751F0EC010E94AE
:104C50008823CE010E94E12CDF91CF910C94562441
:104C6000DF91CF910895CF93DF93EC01892B29F445
:104C70000E948E23DF91CF9108950E94882360E0E7
:104C8000CE010E9407220E945624882389F3F2CF86
:104C90000F920FB6F8940F920BB60F920CB60F92BC
:104CA0001F9211242F923F924F925F926F927F92A8
:104CB0008F929F92AF92BF92CF92DF92EF92FF922C
:104CC0000F931F932F933F934F935F936F937F9314
:104CD0008F939F93AF93BF93CF93DF93EF93FF9304
:104CE000A0915906B0915A060DB60D920EB60D92CE
:104CF00013BE8091FA058111F9C08091F60590915B
:104D0000F70501969093F7058093F605009781F5D6
:104D1000209103063091040640910106509102064D
:104D20005093040640930306309302062093010635
:104D30002091F5052F5F2093F505E0910306F09192
:104D400004062081211107C02FEF3FEF3093F405B7
:104D50002093F3050DC0E0910306F0910406058051
:104D6000F681E02D208131813093F4052093F30505
:104D70002091F3053091F4058217930710F420E099
:104D8000A1C020E039E0D32EE0910306F0910406A3
:104D90003081311107C08FEF9FEF9093F40580931E
:104DA000F30590C0E0910306F09104060580F681BA
:104DB000E02D0680F781E02D42815381841795070D
:104DC00028F45093F4054093F3057CC0A285B38585
:104DD0004481558166817781EA017D836C83668198
:104DE0007781EB015B834A83AF014E5F5F4F119682
:104DF0000D911C9112970417150721F412967C93BC
:104E00006E931197138612863C9131503C93A4897E
:104E1000B5891097F9F06685778500891189EB01CE
:104E20001D830C8300891189E8017B836A831196B5
:104E3000ED90FC901297BF01645F7F4FE616F70676
:104E400021F412961C930E931197158A148A3C91A3
:104E500031503C93A689309156063A1710F4A0932E
:104E60005606DA9ED0011124AE5CB94F11960D9012
:104E7000BC91A02DB583A48314966D917C91159758
:104E80007783668314966D917C911597EB015B8314
:104E90004A8315965C934E93149746894D9DD00195
:104EA0001124AE5CB94FB387A2873C913F5F3C931E
:104EB000E0915906F0915A063689341708F064CF0C
:104EC00021E062CFE0915906F0915A06E689D9E0D7
:104ED000ED9FF0011124EE5CF94F8081823008F0E3
:104EE00021E08091FB0581110EC00AC08091F80578
:104EF0009091F90501969093F9058093F8056CC09F
:104F0000222309F469C08091FA05882321F081E009
:104F10008093FB0561C01092FB05A0915906B091EA
:104F20005A06E0915906F0915A062D913C918789D5
:104F3000908D82179307A8F08091590690915A0698
:104F40008091590690915A06279A2F9A2FEF87EA57
:104F500091E6215080409040E1F700C000001F9A88
:104F6000F5CF2091560689E001C02150422F50E034
:104F7000849FF001859FF00D1124EE5CF94F908124
:104F8000992399F3A181B28112966D917C917283DC
:104F90006183289FC00111248B5C994F68177907A2
:104FA00021F4858196819283818389E0849FF00139
:104FB000859FF00D1124EE5CF94F0180F281E02D08
:104FC0008681978190935A068093590620935606BE
:104FD0008091590690915A06A0915906B0915A06AF
:104FE000CD91CDBFDD91DEBFFF91EF91DF91CF91EC
:104FF000BF91AF919F918F917F916F915F914F91F1
:105000003F912F911F910F91FF90EF90DF90CF90E4
:10501000BF90AF909F908F907F906F905F904F90D8
:105020003F902F901F900F900CBE0F900BBE0F90D3
:105030000FBE0F900895CF93DF93EC010E94882359
:10504000CE010E94452CEC010E945624209769F461
:10505000279A2F9A2FEF80E792E0215080409040CE
:10506000E1F700C000001F9AF5CFCE01DF91CF918C
:1050700008957F928F929F92AF92BF92CF92DF92CC
:10508000EF92FF920F931F93CF93DF93982EA92E49
:10509000762E872E7A01B22ECA010E941B286C013F
:1050A000892B09F4F3C080E390E00E941B28EC01F7
:1050B000892B09F4E8C080E3DE011D928A95E9F7A7
:1050C000D88ECF8AA70165EA70E0C6010E94AB3591
:1050D000B1E0EB1AF108EF89F88DEE0DFF1D672D99
:1050E000782DCE0149969B01205F3F4FDB014D910A
:1050F000BD01DC014D93CD01AB0141505109DA01F5
:105100004C91442319F02617370781F718A6BE8A59
:10511000B9A61B861A861D8A1C8AD987C88784E08F
:1051200090E08B1991099D878C87DB8BCA8B9082CD
:10513000DF011197AC9211971C9211971C92119755
:1051400080E88C9311971C9211971C9211971C92D6
:1051500057971C9211971C92B697F983E883011513
:10516000110519F0F801D183C0830FB6F8940F929E
:1051700080915B068F5F80935B06809159069091CA
:105180005A06892B09F091C0D0935A06C09359064C
:1051900080915B06813081F582E396E00E94632175
:1051A0008BE396E00E94632184E496E00E946321F1
:1051B0008DE496E00E94632189E296E00E946321DB
:1051C00080E296E00E94632187E196E00E946321DD
:1051D0008EE096E00E94632185E096E00E946321C4
:1051E00089E296E0909304068093030680E296E0BD
:1051F0009093020680930106809157068F5F8093FB
:105200005706AE89809156068A1710F4A093560669
:1052100029E02A9FD0011124AE5CB94F11960D9060
:10522000BC91A02DBD83AC8314968D919C91159754
:105230009F838E831496ED91FC911597CE01029673
:105240009383828315969C938E931497EE89E29FA5
:10525000F0011124EE5CF94FFB87EA8780818F5FB4
:1052600080830F900FBE80915806882351F0E09103
:105270005906F0915A0696898E89981710F40E9463
:105280008E2381E004C0C6010E9422268FEFDF91A9
:10529000CF911F910F91FF90EF90DF90CF90BF9033
:1052A000AF909F908F907F900895809158068111C4
:1052B000A3CFE0915906F0915A0696898E898917F5
:1052C00008F49ACFD0935A06C093590695CF0F93FE
:1052D0001F93CF93DF93CDB7DEB760970FB6F894E7
:1052E000DEBF0FBECDBFACEFB4E0FE0131962CE0C7
:1052F00035E0BF018D918193882319F02A173B0770
:10530000C9F705ED15E020E040EC50E08FED91E0AD
:105310000E943928882309F4BBC0813009F0B8C045
:105320000FB6F8940F928091ED059091EE05892BC0
:1053300009F050C080EE95E00E94632187ED95E072
:105340000E94632180EE95E09093F2058093F10531
:1053500087ED95E09093F0058093EF0581E590E06F
:105360000E941B288C01009789F14F96F8019183C8
:1053700080838AE0838F85E0848F0FB6F8940F9244
:1053800080819181238D448DBC01249F600D711D0E
:10539000112475836483128E938382832150330B8F
:1053A000429FB001439F700D1124860F971F978372
:1053B00086838FEF858F868FC80108960E946321B0
:1053C000C80141960E9463210F900FBE1093EE0515
:1053D0000093ED050F900FBE8091ED059091EE05C5
:1053E000892B09F455C009EE15E023E04CE550E0A7
:1053F00061E075E08DE092E00E943928813009F08B
:1054000047C0F8942FEF3FEF3093F4052093F30556
:10541000809358061092F7051092F605A89588E13A
:1054200090EC0FB6F894A895809360000FBE90930F
:105430006000A0915906B0915A06CD91CDBFDD9183
:10544000DEBFFF91EF91DF91CF91BF91AF919F911F
:105450008F917F916F915F914F913F912F911F910C
:105460000F91FF90EF90DF90CF90BF90AF909F9003
:105470008F907F906F905F904F903F902F901F90F4
:105480000F900CBE0F900BBE0F900FBE0F900895A3
:105490008091090260960FB6F894DEBF0FBECDBFB3
:1054A000DF91CF911F910F9108950E944826189582
:1054B0001092D9061092D80688EE93E0A0E0B0E0F2
:1054C0008093DA069093DB06A093DC06B093DD06AA
:1054D0002CE132E03093D7062093D60625EC30E05D
:1054E0003093E3062093E20624EC30E03093E506A7
:1054F0002093E40620EC30E03093E7062093E606A4
:1055000021EC30E03093E9062093E80622EC30E00D
:105510003093EB062093EA0626EC30E03093ED065C
:105520002093EC061092EF061092F0061092F1060E
:105530001092F2061092800710927607109275076B
:105540008093770790937807A0937907B0937A07B1
:105550008EE292E0909374078093730782E38093C6
:105560009E0710929F071092A0071092A107109219
:10557000A2071092A3071092A4071092A5071092F9
:10558000A6071092A7071092A8071092AC071092D6
:10559000AD071092AE078AE18093A90788E1809356
:1055A000AA0786E18093AB0780919C078061877F83
:1055B00080939C07E2E9F3E0E491F0E0EE0FFF1F37
:1055C000E25AFC4F859194919093B0078093AF0776
:1055D000E2E3F3E0E491E093B107E0E9F3E0E49182
:1055E000F0E0EE0FFF1FE25AFC4F859194919093EB
:1055F000B3078093B207E0E3F3E0E491E093B407EC
:10560000EEE8F3E0E491F0E0EE0FFF1FE25AFC4F0A
:10561000859194919093B6078093B507EEE2F3E0FD
:10562000E491E093B70762E08AE10E94C80762E074
:105630008091AA070E94C80780919C0784FF05C03B
:1056400062E08091AB070E94C80780919D0781604E
:1056500080939D07E091AF07F091B0079081809112
:10566000B107982381E009F480E0E091B207F0915E
:10567000B30790812091B407922309F092E0892B1F
:1056800080939F07109291071092900780E492E018
:1056900090938F0780938E071092970787E28093ED
:1056A000920780E18093980782E080939907109297
:1056B0009A0794EF9093860791E090938707109252
:1056C00088071092890710928A0710928B07109210
:1056D0008C0710928D072CE2209384072EE22093F2
:1056E000850720E3209383079093810780938207A7
:1056F00061E08CE00E94C80761E087E00E94C80773
:1057000061E088E00E94C80761E084E00E94C80769
:1057100010927F070E94FC0660E087E00E947006FE
:105720000E94FC06809180008168809380008AE05E
:1057300080938100109289001092880061E08BE0D4
:105740000C94C807789484B5826084BD84B5816068
:1057500084BD85B5826085BD85B5816085BD80913C
:105760006E00816080936E001092810080918100B4
:1057700082608093810080918100816080938100AC
:10578000809180008160809380008091B10084606E
:105790008093B1008091B00081608093B0008091CF
:1057A000910082608093910080919100816080934C
:1057B0009100809190008160809390008091A10081
:1057C00082608093A1008091A10081608093A100FC
:1057D0008091A00081608093A0008091210182606F
:1057E000809321018091210181608093210180912A
:1057F000200181608093200180917A0084608093F1
:105800007A0080917A00826080937A0080917A0099
:10581000816080937A0080917A00806880937A001A
:105820001092C10020910E0230910F028FEF91E291
:10583000821B930B90930B0280930A020E94B6186E
:105840000E9467290E94B6180E94AC09FDCFEF9212
:105850000F931F93CF93DF93E80134E047FD34E1CA
:10586000042E000C550B57FF03C05195419551096B
:10587000E32E022F242FAE010E948F2DCE01DF9147
:10588000CF911F910F91EF9008950F931F93CF9396
:10589000DF938230910510F482E090E0E091BA0746
:1058A000F091BB0730E020E0B0E0A0E0309799F441
:1058B0002115310509F44AC0281B390B2430310564
:1058C000D8F58A819B816115710589F1FB0193836C
:1058D0008283FE0111C040815181028113814817EA
:1058E0005907E0F04817590799F4109761F012969C
:1058F0000C93129713961C933296CF01DF91CF91A0
:105900001F910F9108950093BA071093BB07F4CF2E
:105910002115310551F04217530738F0A901DB0179
:105920009A01BD01DF01F801C1CFEF01F9CF9093DA
:10593000BB078093BA07CDCFFE01E20FF31F81931F
:1059400091932250310939832883D7CF2091B8070A
:105950003091B907232B41F420910C0230910D02B4
:105960003093B9072093B80720910A0230910B02B7
:105970002115310541F42DB73EB740910E025091EB
:105980000F02241B350BE091B807F091B907E2171D
:10599000F307A0F42E1B3F0B2817390778F0AC0152
:1059A0004E5F5F4F2417350748F04E0F5F1F50932F
:1059B000B9074093B807819391939FCFF0E0E0E05F
:1059C0009CCFCF93DF930097E9F0FC0132971382CD
:1059D0001282A091BA07B091BB07ED0130E020E040
:1059E0001097A1F420813181820F931F2091B80775
:1059F0003091B9072817390709F061C0F093B9074A
:105A0000E093B807DF91CF910895EA01CE17DF0741
:105A1000E8F54A815B819E0141155105B1F7E90125
:105A2000FB83EA8349915991C40FD51FEC17FD07F9
:105A300061F4808191810296840F951FE901998319
:105A40008883828193819B838A83F0E0E0E01296D1
:105A50008D919C9113970097B9F52D913C911197D9
:105A6000CD010296820F931F2091B8073091B9079C
:105A70002817390739F6309751F51092BB07109265
:105A8000BA07B093B907A093B807BCCFD383C2833A
:105A900040815181840F951FC817D90761F44E5F6B
:105AA0005F4F88819981480F591F518340838A81B4
:105AB0009B81938382832115310509F0B0CFF09348
:105AC000BB07E093BA079ECFFD01DC01C0CF138274
:105AD0001282D7CFBB274A3031F4992322F4BDE29A
